:100000000C9404080C944B080C944B080C94231D7E
:100010000C944B080C944B080C944B080C944B0814
:100020000C944B080C944B080C9416330C94EA3344
:100030000C94C32A0C944B080C944B080C944B085A
:100040000C944B080C944B080C944B080C944B08E4
:100050000C944B080C941A2B0C944B080C944B08E2
:100060000C944B080C944B080C944B080C944B08C4
:100070000C944B080C944B080C944B080C944B08B4
:100080000C944B080C944B080C944B080C944B08A4
:100090000C944B080C944B080C944B080C944B0894
:1000A0000C944B080C944B080C944B083454485F48
:1000B000454E435F4C003454485F454E435F520009
:1000C0003352445F454E435F4C003352445F454ECC
:1000D000435F5200324E445F454E435F4C00324E08
:1000E000445F454E435F52003153545F454E435F7A
:1000F0004C003153545F454E435F5200534A360023
:1001000053493600534836005347360053463600AD
:1001100053453600534436005343360053423600AD
:1001200053413600534A3500534935005348350092
:100130005347350053463500534535005344350089
:10014000534335005342350053413500534A340080
:100150005349340053483400534734005346340065
:100160005345340053443400534334005342340065
:1001700053413400534A330053493300534833004A
:100180005347330053463300534533005344330041
:10019000534333005342330053413300534A320038
:1001A000534932005348320053473200534632001D
:1001B000534532005344320053433200534232001D
:1001C00053413200534A3100534931005348310002
:1001D00053473100534631005345310053443100F9
:1001E0005343310053423100534131004A360049F4
:1001F000360048360047360046360045360044365D
:10020000004336004236004136004A350049350089
:100210004835004735004635004535004435004334
:1002200035004235004135004A3400493400483435
:100230000047340046340045340044340043340061
:100240004234004134004A33004933004833004708
:100250003300463300453300443300433300423318
:10026000004133004A320049320048320047320030
:1002700046320045320044320043320042320041EF
:1002800032004A31004931004831004731004631DF
:10029000004531004431004331004231004131001A
:1002A000085D095D0A5D0B5D0C5D0D5D0E5D0F5D0A
:1002B000125D135D145D155D165D175D185D195DAA
:1002C0001C5D1D5D1E5D1F5D205D215D225D235D4A
:1002D000265D275D285D295D2A5D2B5D2C5D2D5DEA
:1002E000305D315D325D335D345D355D365D375D8A
:1002F0003A5D3B5D3C5D3D5D3E5D3F5D405D415D2A
:10030000445D455D465D475D485D495D4A5D4B5DC9
:100310004E5D4F5D505D515D525D535D545D555D69
:10032000585D595D5A5D5B5D5C5D5D5D5E5D5F5D09
:10033000625D635D645D655D665D675D685D695DA9
:100340006C5D6D5D6E5D6F5D705D715D725D735D49
:10035000765D775D785D795D7A5D7B5D7C5D7D5DE9
:1003600044454255473A2064697361626C65642E66
:100370000A0044454255473A20656E61626C6564E7
:100380002E0A0000000000000000002A2B280000B8
:100390000000000000000000000000000000290034
:1003A0000000002C1E3420212224342627252E363E
:1003B0002D3738271E1F20212223242526333336AC
:1003C0002E37381F0405060708090A0B0C0D0E0FFF
:1003D000101112131415161718191A1B1C1D2F3182
:1003E00030232D350405060708090A0B0C0D0E0FE6
:1003F000101112131415161718191A1B1C1D2F3162
:1004000030354C000000000000000000000000003B
:10041000000000000000007E0F00D4FFFFFFC700B7
:100420000000780A0025303862003A20002530327A
:1004300058000A722F632030313233343536370A90
:10044000007267626C6967687420616E696D6174BF
:10045000696F6E207469636B207265706F727420AF
:10046000746F20736C6176650A007267626C6967ED
:1004700068742074696D65722064697361626C656B
:100480002E0A007267626C696768742074696D6512
:100490007220656E61626C65642E0A007267626C20
:1004A000696768742073657420687376205B4E4FAB
:1004B000454550524F4D5D3A2025752C25752C250C
:1004C000750A007267626C696768742073657420CE
:1004D000687376205B454550524F4D5D3A20257537
:1004E0002C25752C25750A007267626C6967687423
:1004F0002064697361626C65205B4E4F45455052C4
:100500004F4D5D3A207267626C696768745F636F14
:100510006E6669672E656E61626C65203D2025758B
:100520000A007267626C696768742064697361624B
:100530006C65205B454550524F4D5D3A20726762B5
:100540006C696768745F636F6E6669672E656E615C
:10055000626C65203D2025750A007267626C6967D0
:10056000687420656E61626C65205B454550524F32
:100570004D5D3A207267626C696768745F636F6E85
:100580006669672E656E61626C65203D2025750A7F
:10059000007267626C6967687420746F67676C6566
:1005A000205B454550524F4D5D3A207267626C6941
:1005B0006768745F636F6E6669672E656E61626CF3
:1005C00065203D2025750A007267626C6967687452
:1005D000206D6F6465205B4E4F454550524F4D5D19
:1005E0003A2025750A007267626C69676874206D2D
:1005F0006F6465205B454550524F4D5D3A2025752F
:100600000A007267626C696768745F696E6974205A
:100610007267626C696768745F636F6E6669672E84
:100620006D6F6465203D20302E20577269746520FF
:1006300064656661756C742076616C756573207491
:100640006F20454550524F4D2E0A007267626C690B
:100650006768745F696E6974206565636F6E66694B
:1006600067206973206E6F7420656E61626C6564CB
:100670002E0A007267626C696768745F696E6974DC
:10068000207374617274210A007267626C69676812
:10069000745F696E69742063616C6C65642E0A0016
:1006A0007267626C696768745F636F6E6669672EF4
:1006B0007370656564203D2025640A007267626C72
:1006C000696768745F636F6E6669672E76616C2018
:1006D0003D2025640A007267626C696768745F6315
:1006E0006F6E6669672E736174203D2025640A0071
:1006F0007267626C696768745F636F6E6669672EA4
:10070000687565203D2025640A007267686C69671A
:1007100068745F636F6E6669672E6D6F6465203DF8
:100720002025640A007267626C696768745F636F92
:100730006E6669672E656E61626C65203D2025647A
:100740000A007267626C696768745F636F6E6669DE
:100750006720454550524F4D3A0A006432146432C6
:1007600014783C1E1E140A052223252628292A2C2B
:100770002D2F3032333536383A3B3D3E40424345EB
:1007800047494A4C4E5051535557595A5C5E606226
:10079000646668696B6D6F71737577797B7D7F8136
:1007A000838587898A8C8E90929496989A9C9E9F36
:1007B000A1A3A5A7A8AAACAEAFB1B3B4B6B8B9BB54
:1007C000BCBEBFC1C2C3C5C6C7C9CACBCCCDCED0C3
:1007D000D1D2D2D3D4D5D6D7D7D8D9D9DADADBDBB0
:1007E000DBDCDCDCDCDCDDDDDDDDDCDCDCDCDCDB47
:1007F000DBDBDADAD9D9D8D7D7D6D5D4D3D2D2D190
:10080000D0CECDCCCBCAC9C7C6C5C3C2C1BFBEBC82
:10081000BBB9B8B6B4B3B1AFAEACAAA8A7A5A3A1F3
:100820009F9E9C9A98969492908E8C8A89878583B5
:10083000817F7D7B79777573716F6D6B6968666495
:1008400062605E5C5A5957555351504E4C4A494765
:10085000454342403E3D3B3A3836353332302F2D0A
:100860002C2A29282625232200010101010101014A
:100870000101020202020202020202030303030355
:100880000303030404040404040405050505050624
:1008900006060606070707070708080808090909E2
:1008A000090A0A0A0B0B0B0C0C0C0D0D0D0E0E0E8B
:1008B0000F0F0F101011111112121313141415151C
:1008C00016161717181819191A1A1B1B1C1D1D1E8E
:1008D0001E1F2020212222232424252626272829E2
:1008E000292A2B2C2D2D2E2F303132323334353610
:1008F0003738393A3B3C3D3E3F4041424344454610
:100900004748494A4C4D4E4F5051535455565859EB
:100910005A5B5D5E5F616264656668696B6C6D6F92
:100920007072737577787A7B7D7E80828385878805
:100930008A8C8E8F91939596989A9C9EA0A2A3A53F
:10094000A7A9ABADAFB1B3B5B7BABCBEC0C2C4C640
:10095000C9CBCDCFD1D4D6D8DBDDDFE2E4E7E9EBFC
:10096000EEF0F3F5F8FAFDFF0A00253032582000CA
:100970006B6579626F6172645F7265706F72743AF1
:1009800020000A0025303258006B6579626F617271
:10099000645F7365745F6C65643A20003F00433E9A
:1009A00020004C25640A0074696D65725F72656190
:1009B00064333228293A202530346C580A006B659C
:1009C00079626F6172645F69646C653A2025580AC8
:1009D000006B6579626F6172645F70726F746F63D0
:1009E0006F6C3A2025580A00686F73745F6B6579E5
:1009F000626F6172645F6C65647328293A202558C0
:100A00000A000A092D20537461747573202D0A00A1
:100A10004743433A20382E332E30204156522D4C36
:100A20004942433A20322E302E30204156525F4107
:100A30005243483A20617672350A004F5054494F6C
:100A40004E533A204C5546412045585452414B454F
:100A50005920434F4E534F4C4520434F4D4D414E2F
:100A60004420343039360A004255494C443A202259
:100A7000302E392E34362D35372D673030623861BF
:100A80003122202832323A31343A313420417567EC
:100A90002020322032303230290A005649443A2090
:100AA0003078313230392865337732712920504916
:100AB000443A203078343634392848795279313004
:100AC0003429205645523A203078303030310A00EF
:100AD0000A092D2056657273696F6E202D0A000A6F
:100AE000092D20436F6E736F6C65202D0A455343AB
:100AF0002F713A09717569740A000A092D204D6138
:100B0000676963202D0A443A094465627567204D80
:100B100065737361676520546F67676C650A583A3F
:100B2000094D6174726978204465627567204D6F64
:100B3000646520546F67676C65202D2053686F775C
:100B4000206B65797072657373657320696E206DB3
:100B5000617472697820677269640A4B3A094B655F
:100B600079626F61726420446562756720546F67B3
:100B7000676C65202D2053686F77206B65797072E4
:100B8000657373207265706F72740A4D3A0944651B
:100B9000627567204D6F75736520546F67676C656C
:100BA0000A563A0956657273696F6E0A533A0953C9
:100BB00074617475730A433A0941637469766174A8
:100BC0006520436F6E736F6C65204D6F64650A46D8
:100BD000312D4631303A0953776974636820746F58
:100BE000204C6179657220302D3920284631302023
:100BF0003D204C30290A302D393A09537769746306
:100C00006820746F204C6179657220302D390A4755
:100C1000524156453A0953776974636820746F20CE
:100C20004C6179657220302028616C7465726E6148
:100C30007465290A423A094A756D7020746F204222
:100C40006F6F746C6F616465720A4553433A094A69
:100C5000756D7020746F20426F6F746C6F61646586
:100C6000722028616C7465726E617465290A453A58
:100C7000095072696E7420454550524F4D2053659E
:100C80007474696E67730A4253504143453A09438D
:100C90006C65617220454550524F4D0A000A00258F
:100CA00075002E6E6B726F3A20000A002575002EBB
:100CB000737761705F6261636B736C6173685F62AD
:100CC00061636B73706163653A20000A00257500EB
:100CD0002E737761705F67726176655F6573633AE3
:100CE00020000A002575002E6E6F5F6775693A2037
:100CF000000A002575002E737761705F72616C7455
:100D00005F726775693A20000A002575002E7377B7
:100D100061705F6C616C745F6C6775693A20000A82
:100D2000002575002E737761705F7263746C5F725B
:100D30006775693A20000A002575002E7377617087
:100D40005F6C63746C5F6C6775693A20000A0025FC
:100D500075002E636170736C6F636B5F746F5F639C
:100D60006F6E74726F6C3A20000A002575002E7346
:100D70007761705F636F6E74726F6C5F63617073C5
:100D80006C6F636B3A20000A0025303258006B65A7
:100D9000796D61705F636F6E6669672E7261773A15
:100DA00020000A002575002E6D6F7573653A2000CE
:100DB0000A002575002E6B6579626F6172643A20B6
:100DC000000A002575002E6D61747269783A200062
:100DD0000A002575002E656E61626C653A20000A76
:100DE00000253032580064656275675F636F6E6618
:100DF00069672E7261773A20000A002575006465E4
:100E00006661756C745F6C617965723A20003F00B1
:100E10000A6D6F7573653A206F66660A000A6D6F1A
:100E20007573653A206F6E0A000A6B6579626F61AF
:100E300072643A206F66660A000A6B6579626F61B8
:100E400072643A206F6E0A000A6D61747269783AB2
:100E5000206F66660A000A6D61747269783A206FC5
:100E60006E0A000A64656275673A206F66660A005A
:100E70000A64656275673A206F6E0A000A0A4A754D
:100E80006D70696E6720746F20626F6F746C6F6134
:100E90006465722E2E2E2000433E2000436C656157
:100EA00072696E6720454550524F4D0A0065656373
:100EB0006F6E6669673A0A005B735D004B65796225
:100EC0006F6172642073746172742E0A005B575DE7
:100ED000005B535D005B525D005B445D005B435D06
:100EE000000403300000000C0353005500310032B1
:100EF00000300000000C0365003300770032007101
:100F00000000000403090409025B00030100A0FAC9
:100F1000090400000103010100092111010001225F
:100F200040000705810308000A09040100010300CD
:100F3000000009211101000122320007058203206F
:100F4000000A090402000203000000092111010047
:100F50000122220007058303200001070503032067
:100F600000011201100100000008091249460100A9
:100F7000010203010631FF0974A10109751500265C
:100F8000FF009520750881020976150026FF00955F
:100F90002075089102C005010980A101850319018E
:100FA0002AB700150126B700950175108100C0050C
:100FB0000C0901A101850419012AA002150126A02E
:100FC00002950175108100C005010906A101050700
:100FD00019E029E7150025019508750181029501A1
:100FE000750881010507190029FF150026FF0095E6
:100FF00006750881000508190129059505750191F7
:1010000002950175039101C011241FBECFEFDAE0F4
:10101000DEBFCDBF04B603FE27C0809105039091CB
:101020000603A0910703B09108038730904BA740B7
:10103000B04BD1F4109205031092060310920703EF
:101040001092080314BE84B7877F84BF0FB6F8944C
:10105000A895809160008861809360001092600084
:101060000FBEE0E0F8E3099511E0A0E0B1E0ECED9F
:10107000FDE602C005900D92AE3CB107D9F723E022
:10108000AEECB1E001C01D92A530B207E1F70E94BD
:101090003C300C9438360C940000FF93EF93E091B1
:1010A000CE01F091CF01309709F00995EF91FF91B2
:1010B0000895FC018591803011F0EFDFFBCF08959A
:1010C000FF27E0E230E247FF0CC0419597FF09C0DF
:1010D000EDE26095709580959095611D711D811D63
:1010E000911D27FF02C0219530E350E2AA27660F29
:1010F000771F881F991FAA1FA41710F0A41B6395C0
:101100005A95A9F7AA3008F0A95FA05DAF93F395AF
:10111000611571058105910541F7ED3211F4EF93E9
:10112000F395F21718F43F93F395FBCF8F91B5DF4A
:10113000FA95E1F70895E991F9918591803021F0D0
:10114000853219F0AADFF9CF089520E0E89455918F
:101150005532C1F3503311F4689455915A3348F421
:10116000505390F3220F022E220F220F200D250F35
:10117000F4CF0EF4219589919991533619F3533791
:1011800029F1533559F1BC0188279927E8945C3639
:1011900021F48991999168945591543639F446EF28
:1011A0007EF077FF0DC08FEF9FEF0AC055374AE002
:1011B00039F0583540E121F0523642E009F0089507
:1011C000FF93EF937DDFEF91FF91B7CFFF93EF9305
:1011D000FC0181918030B9F360DFFBCFFF93EF9387
:1011E00068DFF1CFDF93CF93CDB7DEB72596A3DFCE
:1011F000CF91DF91089588509D458837910570F40F
:10120000FC01E65CF94CDB0112969C910C94DD35F7
:10121000992321F08DE992E00E94EC0D81E0089580
:101220009923E1F38AE992E00E94EC0DF7CF99232C
:10123000A9F387E992E00E94EC0DF0CF992371F3B6
:1012400084E992E00E94EC0DE9CF992339F381E91A
:1012500092E00E94EC0DE2CF992301F38EE892E038
:101260000E94EC0DDBCF9923C9F28BE892E00E943B
:10127000EC0DD4CF992391F288E892E00E94EC0D16
:10128000CDCF992359F285E892E00E94EC0DC6CFAC
:10129000992321F282E892E00E94EC0DBFCF9923BE
:1012A00009F4BCCF8FE792E00E94EC0DB7CF9923F1
:1012B00009F4B4CF8CE792E00E94EC0DAFCF9923F4
:1012C00009F4ACCF89E792E00E94EC0DA7CF9923F7
:1012D00009F4A4CF86E792E00E94EC0D9FCF9923FA
:1012E00009F49CCF83E792E00E94EC0D97CF9923FD
:1012F00009F494CF80E792E00E94EC0D8FCF992300
:1013000009F48CCF8DE692E00E94EC0D87CF9923F3
:1013100009F484CF8AE692E00E94EC0D7FCF9923F6
:1013200009F47CCF87E692E00E94EC0D77CF9923F9
:1013300009F474CF84E692E00E94EC0D6FCF9923FC
:1013400009F46CCF81E692E00E94EC0D67CF9923FF
:1013500009F464CF8EE592E00E94EC0D5FCF9923F3
:1013600009F45CCF8BE592E00E94EC0D57CF9923F6
:1013700009F454CF88E592E00E94EC0D4FCF9923F9
:1013800009F44CCF85E592E00E94EC0D47CF9923FC
:1013900009F444CF82E592E00E94EC0D3FCF9923FF
:1013A00009F43CCF8FE492E00E94EC0D37CF9923F3
:1013B00009F434CF8CE492E00E94EC0D2FCF9923F6
:1013C00009F42CCF89E492E00E94EC0D27CF9923F9
:1013D00009F424CF86E492E00E94EC0D1FCF9923FC
:1013E00009F41CCF83E492E00E94EC0D17CF9923FF
:1013F00009F414CF80E492E00E94EC0D0FCF992302
:1014000009F40CCF8DE392E00E94EC0D07CF9923F5
:1014100009F404CF8AE392E00E94EC0DFFCE9923F9
:1014200009F4FCCE87E392E00E94EC0DF7CE9923FD
:1014300009F4F4CE84E392E00E94EC0DEFCE992300
:1014400009F4ECCE81E392E00E94EC0DE7CE992303
:1014500009F4E4CE8EE292E00E94EC0DDFCE9923F7
:1014600009F4DCCE8BE292E00E94EC0DD7CE9923FA
:1014700009F4D4CE88E292E00E94EC0DCFCE9923FD
:1014800009F4CCCE85E292E00E94EC0DC7CE992300
:1014900009F4C4CE82E292E00E94EC0DBFCE992303
:1014A00009F4BCCE8FE192E00E94EC0DB7CE9923F7
:1014B00009F4B4CE8CE192E00E94EC0DAFCE9923FA
:1014C00009F4ACCE89E192E00E94EC0DA7CE9923FD
:1014D00009F4A4CE86E192E00E94EC0D9FCE992300
:1014E00009F49CCE83E192E00E94EC0D97CE992303
:1014F00009F494CE80E192E00E94EC0D8FCE992306
:1015000009F48CCE8DE092E00E94EC0D87CE9923F9
:1015100009F484CE8AE092E00E94EC0D7FCE9923FC
:1015200009F47CCE87E092E00E94EC0D77CE9923FF
:1015300009F474CE84E092E00E94EC0D6FCE992302
:1015400009F46CCE81E092E00E94EC0D67CE992305
:1015500009F464CE8EEF91E00E94EC0D5FCE9923EA
:1015600009F45CCE8BEF91E00E94EC0D57CE9923ED
:1015700009F454CE88EF91E00E94EC0D4FCE9923F0
:1015800009F44CCE85EF91E00E94EC0D47CE9923F3
:1015900009F444CE82EF91E00E94EC0D3FCE9923F6
:1015A00009F43CCE8FEE91E00E94EC0D37CE9923EA
:1015B00009F434CE8CEE91E00E94EC0D2FCE9923ED
:1015C00009F42CCE88EE91E00E94EC0D27CE9923F1
:1015D00009F424CE84EE91E00E94EC0D1FCE9923F5
:1015E00009F41CCE80EE91E00E94EC0D17CE9923F9
:1015F00009F414CE8CED91E00E94EC0D0FCE9923EE
:1016000009F40CCE88ED91E00E94EC0D07CE9923F1
:1016100009F404CE84ED91E00E94EC0DFFCD9923F6
:1016200009F4FCCD80ED91E00E94EC0DF7CD9923FB
:1016300009F4F4CD8CEC91E00E94EC0DEFCD9923F0
:1016400009F4ECCD88EC91E00E94EC0DE7CD9923F4
:1016500009F4E4CD84EC91E00E94EC0DDFCD9923F8
:1016600009F4DCCD80EC91E00E94EC0DD7CD9923FC
:1016700009F4D4CD8CEB91E00E94EC0DCFCD9923F1
:1016800009F4CCCD88EB91E00E94EC0DC7CD9923F5
:1016900009F4C4CD84EB91E00E94EC0DBFCD9923F9
:1016A00009F4BCCD80EB91E00E94EC0DB7CD9923FD
:1016B00009F4B4CD8CEA91E00E94EC0DAFCD9923F2
:1016C00009F4ACCD88EA91E00E94EC0DA7CD9923F6
:1016D00009F4A4CD84EA91E00E94EC0D9FCD9923FA
:1016E00009F49CCD80EA91E00E94EC0D97CD9923FE
:1016F00009F494CD8CE991E00E94EC0D8FCD9923F3
:1017000009F48CCD88E991E00E94EC0D87CD9923F6
:1017100009F484CD84E991E00E94EC0D7FCD9923FA
:1017200009F47CCD80E991E00E94EC0D77CD9923FE
:1017300009F474CD8CE891E00E94EC0D6FCD9923F3
:1017400009F46CCD88E891E00E94EC0D67CD9923F7
:1017500009F464CD84E891E00E94EC0D5FCD9923FB
:1017600009F45CCD80E891E00E94EC0D57CD9923FF
:1017700009F454CD8CE791E00E94EC0D4FCD9923F4
:1017800009F44CCD88E791E00E94EC0D47CD9923F8
:1017900009F444CD84E791E00E94EC0D3FCD9923FC
:1017A00009F43CCD80E791E00E94EC0D37CD992300
:1017B00009F434CD8CE691E00E94EC0D2FCD9923F5
:1017C00009F42CCD88E691E00E94EC0D27CD9923F9
:1017D00009F424CD84E691E00E94EC0D1FCD9923FD
:1017E00009F41CCD80E691E00E94EC0D17CD992301
:1017F00009F414CD8CE591E00E94EC0D0FCD9923F6
:1018000009F40CCD88E591E00E94EC0D07CD9923F9
:1018100009F404CD84E591E00E94EC0DFFCC9923FE
:1018200009F4FCCC80E591E00E94EC0DF7CC992303
:1018300009F4F4CC8CE491E00E94EC0DEFCC9923F8
:1018400009F4ECCC88E491E00E94EC0DE7CC9923FC
:1018500009F4E4CC84E491E00E94EC0DDFCC992300
:1018600009F4DCCC80E491E00E94EC0DD7CC992304
:1018700009F4D4CC8CE391E00E94EC0DCFCC9923F9
:1018800009F4CCCC88E391E00E94EC0DC7CC9923FD
:1018900009F4C4CC84E391E00E94EC0DBFCC992301
:1018A00009F4BCCC80E391E00E94EC0DB7CC992305
:1018B00009F4B4CC8CE291E00E94EC0DAFCC9923FA
:1018C00009F4ACCC88E291E00E94EC0DA7CC9923FE
:1018D00009F4A4CC84E291E00E94EC0D9FCC992302
:1018E00009F49CCC80E291E00E94EC0D97CC992306
:1018F00009F494CC8CE191E00E94EC0D8FCC9923FB
:1019000009F48CCC88E191E00E94EC0D87CC9923FE
:1019100009F484CC84E191E00E94EC0D7FCC992302
:1019200009F47CCC80E191E00E94EC0D77CC992306
:1019300009F474CC8CE091E00E94EC0D6FCC9923FB
:1019400009F46CCC88E091E00E94EC0D67CC9923FF
:1019500009F464CC84E091E00E94EC0D5FCC992303
:1019600009F45CCC80E091E00E94EC0D57CC992307
:1019700009F454CC8CEF90E00E94EC0D4FCC08950C
:1019800008950895813079F0882329F0823091F00C
:101990008330B9F0089582EF90E0611102C088EEC3
:1019A00090E00C94EC0D8EED90E06111FACF84ED97
:1019B00090E0F7CF8AEC90E06111F3CF80EC90E0FB
:1019C000F0CF86EB90E06111ECCF8CEA90E0E9CFAC
:1019D00081E008950C94FB0808950C94EC0C1F937F
:1019E000CF93DF9300D000D00F92CDB7DEB74983FD
:1019F0005A836B833091140289819A8131111DC001
:101A00006623B9F02223A9F00E941728182F682F07
:101A100089819A810E94C22769817A81812F0F90E2
:101A20000F900F900F900F90DF91CF911F910C941A
:101A3000730E0E94EF27182FEFCF0E94172869819D
:101A40007A81EDCFFC01262F408151816281738123
:101A500084810C94EF0CCF93DF93EC0160E00E9443
:101A6000220DBE01DF91CF910C94ED0CFF920F93EC
:101A70001F93CF93DF93E82FF0E0ED57FC4FF490E6
:101A8000C82FC695C695C695D0E0FE01ED5EFB4F0A
:101A90000491877010E0082E02C0159507950A94EE
:101AA000E2F701701127CD5FDB4FFE01C491D0E05A
:101AB00002C0D595C7958A95E2F7C170DD2701155B
:101AC000110519F081EE0E94CE1F209719F086EEC5
:101AD0000E94CE1F8F2D0E94AC20CD2B19F086EED8
:101AE0000E945D20012B41F081EEDF91CF911F918B
:101AF0000F91FF900C945D20DF91CF911F910F917A
:101B0000FF900895EF92FF920F931F93CF93DF936F
:101B10008C01F62E8AE0E82EF8018491882309F4DE
:101B200054C0813009F04DC0E8012196FE01849136
:101B3000813091F42196FE0184910E94AC208E01A7
:101B40000F5F1F4F8F2D815038F3EFE9FFE0319782
:101B5000F1F700C00000F7CF823039F4E801229697
:101B6000FE0184910E94CE1FEACF833039F4E80150
:101B70002296FE0184910E945D20E1CF8430F9F627
:101B8000E8012296FE01249190E080E0FE0131966A
:101B90002053330B2A30310548F0019780F2EFE9EA
:101BA000FFE03197F1F700C00000F7CFE89EA001F9
:101BB000E99E500D1124C901840F951F2491EF0156
:101BC000E5CF0E94360DE801BACFDF91CF911F918A
:101BD0000F91FF90EF90089560E00C94820D0E94A9
:101BE0007829811102C00E94152A0C9476100C9459
:101BF00078100C94C10C81E008950C94FB0DCF93E8
:101C0000C82F0E94F90D8C2FCF910C94FD0D0895D3
:101C10000E942C230E94070E2FEF84E39CE02150AA
:101C200080409040E1F700C000000C943E2B0F93E1
:101C30001F93CF93DF93EC0161E00E94220D8C0192
:101C4000BE010E94EA0C882341F1BE01C8010E9436
:101C5000DF1A882311F1BE01C8010E94201B8823CE
:101C6000E1F0BE01C8010E94431C8823B1F0BE010F
:101C7000C8010E943A19882381F08A81882341F1A2
:101C800001308CE5180779F00E3D8CE51807E9F076
:101C900001151C45E9F40E94080E80E0DF91CF9108
:101CA0001F910F91089590919E02892F8E7F90FF32
:101CB000816080939E0280FF05C082E793E00E94CE
:101CC0005908EBCF80E693E0FACF0E94152AE5CFC2
:101CD000CE01DF91CF911F910F910C94E80C90E011
:101CE00080E008950895E72FF0E09CE0899FE00DE3
:101CF000F11D112483E0EE0FFF1F8A95E1F7E60F37
:101D0000F11DEE0FFF1FE056FD4F85919491089550
:101D1000FC01EE0FFF1FED5DFB4F8591949108953F
:101D2000CF93DF930E94730E0E949C0FEC018115EC
:101D300020E5920708F041C0811530E4930708F0D0
:101D4000B4C0803E910518F5803C910508F09DC017
:101D5000883A910570F4853A910508F08EC081307B
:101D60009105F9F00097E9F00497D8F4D0E0C0E0CD
:101D700018C08F3B9105D0F7C85AD0E0CC0FDD1FBB
:101D8000CC5DDE4F0990D881C02DD4640AC0811586
:101D9000904258F4C11581E0D80718F4C83ED10527
:101DA00028F7CE01DF91CF910895C11590E3D907AF
:101DB00008F071C0CE019F706AC0811525E59207B9
:101DC00058F5811534E5930708F09EC0811542E56A
:101DD000940750F4C11581E5D80708F469C0DC2FD9
:101DE000CC27C16FD06ADDCF982F969596959E012E
:101DF00023703327C115D34508F077C0C1E0D0E088
:101E000002C0CC0FDD1F2A95E2F720E2929FC001AD
:101E10001124C82BD92B67C0C11589E5D807A8F4B0
:101E2000C11598E5D90708F074C0C11526E5D20799
:101E300008F09CCF8C2F0E943310C82FD0E0DC2FED
:101E4000CC27CC27DF71D062ACCFC1153AE5D307E0
:101E500008F464C0CE0190568115904208F086CFF8
:101E60008D2F8F710E94331090E0982F882788273C
:101E70009F719C012C2BE901E6CFC55AD0E0CE5AC8
:101E8000DE4FC881D0E0D0648CCF805C91090E9485
:101E9000880EEC0186CFCE019927D3FF03C0EC0159
:101EA000D86C7FCFEC01D06C7CCFDF70D06A79CF5B
:101EB000CE01E4E096958795EA95E1F783702C2FA3
:101EC00026952695237090E2299F90011124382BA6
:101ED0008C2F8370C1E0D0E002C0CC0FDD1F8A954B
:101EE000E2F7C22BD32BDC685CCFC1E0D0E002C0AC
:101EF000CC0FDD1F2A95E2F730E2939FC001112439
:101F0000C82BD92BDA684DCFD82FCC27C46FD06A15
:101F100048CFDC2FCC27C06FD06A43CF8C2F8F7077
:101F20000E94331034E0D695C7953A95E1F7CF700B
:101F30009C2FEC01D06935CF82389105B1F1B0F416
:101F40008133910509F475C048F48932910509F48B
:101F500069C08A32910509F473C0089585339105EB
:101F600009F459C08933910501F10895833E910523
:101F7000A9F138F4803E9105F9F0823E910549F1CE
:101F80000895863E9105A9F1873E9105C9F1843EE9
:101F9000910519F52091F70221FF1FC08091F602EB
:101FA00084FD14C087EE90E008952091F60223701E
:101FB000A1F080EE90E008952091F60220FD47C048
:101FC0003091F70230FF09C024FF44C090E080E068
:101FD00004C02091F60222FDF7CF08952091F60269
:101FE00022FD3BC03091F70230FDE3CF24FFF5CF57
:101FF000EDCF2091F60223FFF0CF24FDE7CFD2CF23
:102000002091F60223FD2CC03091F70231FFEECF74
:1020100084EE90E008952091F60225FFDECF89E25C
:1020200090E008952091F60225FFD7CF85E390E058
:1020300008952091F60226FFD0CF8AE290E008951D
:102040002091F60226FFC9CF81E390E0089589E34D
:1020500090E0089583EE90E0089582EE90E0089578
:1020600086EE90E008959091F60292FF06C0282F28
:1020700028712830F9F4877F846093FF06C0282FE9
:1020800028712831F1F4877E84612091F70220FFC6
:1020900006C0382F38713830D9F4877F816021FF2E
:1020A00006C0282F28712831D1F4877E816194FDE4
:1020B000877E0895282F24712430F9F68B7F88605D
:1020C000DCCF282F2471243101F78B7E8861DDCF8E
:1020D000382F3171313019F78E7F8860E0CF282F8B
:1020E0002171213121F78E7E8861E1CF0C94BF0CE4
:1020F0000C94C00CE82FF0E0E554FD4F808108956A
:10210000CF92DF92EF92FF920F931F93CF93DF93C3
:1021100082E394E00E9459088BEBE82E82E0F82ECF
:10212000D0E0C0E09DE2C92E94E0D92E05E214E093
:10213000DF93CF93DF92CF920E94F2088AE294E07D
:102140000E945908F70181917F010E9460291F9226
:102150008F931F930F930E94F20883E294E00E94F2
:10216000590821968DB79EB708960FB6F8949EBF72
:102170000FBE8DBFCC30D105D9F6DF91CF911F9125
:102180000F91FF90EF90DF90CF90089580EA8A95AD
:10219000F1F7089508950E9428128091000180911E
:1021A000000196E0811190E09093C80286E0891BBF
:1021B0008093C702ADE5B1E061E070E08D91E82F5A
:1021C000E295EF70F0E041A18F709B0101C0220FFA
:1021D0008A95EAF7922F9095942391A382A1822B5E
:1021E00082A381E0A336B80749F7A5E5B1E061E035
:1021F00070E08D91E82FE295EF70F0E041A18F70D3
:102200009B0101C0220F8A95EAF7922F90959423A3
:1022100091A382A1822B82A381E0AD35B80749F753
:10222000EFEAF2E0ABEBB2E08BEB92E011921D92A1
:102230008E179F07D9F786E00E94D3110E94EF0DF9
:102240000C943D120E940A12882309F18091C70262
:1022500090E085549D4F0E946D12811115C08091B0
:10226000D0018F5F8093D001863060F0E091C7028B
:10227000F0E0E554FD4F90E080E011920196863049
:102280009105D9F70C94F70D1092D001FBCF8091F6
:10229000C80290E085549D4F0E948E120C94CA1083
:1022A0008F929F92AF92BF92CF92DF92EF92FF9266
:1022B0000F931F93CF93DF938DE5A82E81E0B82E67
:1022C0000FEA12E0912CCC24C394D12CF50181911A
:1022D0005F01C82FC295CF70D0E099A18F707601B1
:1022E00001C0EE0C8A95EAF7892F8E2989A38AA16D
:1022F0008E2C809488218AA30E94C610E5E5F1E027
:1023000050E040E020E03191A32FA295AF70B0E003
:1023100090968C9190E03F7002C0959587953A9584
:10232000E2F780FD3CC08C2D042E01C0880F0A947A
:10233000EAF7282B4F5F5F4F4830510521F789A1FD
:10234000882289A28AA1E82AEAA2F80180812817B6
:1023500041F1208381E0982A0F5F1F4FF3E6AF160B
:10236000F1E0BF0609F0B2CF6091C80270E0655499
:102370007D4F292D46E08FEA92E00E94D4110E9401
:102380002211892DDF91CF911F910F91FF90EF9036
:10239000DF90CF90BF90AF909F908F90089580E096
:1023A000C8CF80E0D8CF0895FF920F931F93CF93AB
:1023B000DF93F82E092F162FD72FC42F222349F091
:1023C00081E08093D3010E94F32A9093D2018093FD
:1023D000D1018091D3018823A1F08091D101909106
:1023E000D2010E940B2B069760F0EF2DF02FA12F4A
:1023F000BD2FCE0FDF2FD11DEC17FD0741F410923A
:10240000D301DF91CF911F910F91FF90089581919A
:102410008D93F2CF8091D401811111C08091D800A9
:1024200080618093D8008AE18A95F1F700C090918D
:10243000D900892F817090FF82E08093D40181E0E0
:102440009091D401913009F080E008950C940A1223
:102450000E942612809300018091000166E088238B
:1024600049F080E00E943A130E940A12882321F06A
:102470000C94441286E0F6CF08950E940A1281114E
:1024800002C00C944A12089562E070E081E091E08D
:102490000C94D01C62E070E081E091E00C94D91CB7
:1024A0000E946716882361F08EED91E00E946D1600
:1024B00081E090E00E94B21D892B11F40C946A1601
:1024C00008958091DD01883039F460E08EED91E06F
:1024D0000E943C181092DD010895CF93DF93D82F0E
:1024E000C92F0E94501290E080E00E94B21D009718
:1024F00099F4ED2FFC2FDC01AA52BE4F2C912193B1
:10250000019686309105B9F78CED91E00E943F1A53
:1025100081E0DF91CF91089580E0FBCFCF93DF93EF
:10252000D82FC92F0E946112ED2FFC2F90E080E080
:102530002191DC01AA52BE4F2C9301968630910561
:10254000B9F78CED91E0DF91CF910C94361AAF92F0
:10255000BF92CF92DF92FF920F931F93CF93DF939F
:10256000362F472FE82FF0E0E859F74F71110DC0D3
:102570006491762F862FDF91CF911F910F91FF905D
:10258000DF90CF90BF90AF900895C72FD0E02491F7
:10259000F22E022F10E056E0659FC0011124EFEFEC
:1025A000F0E0BF010E94B535832F90E0880F991F9E
:1025B00035E5369FD001379FB00D11248A1B9B0B48
:1025C000982F990F980F6F01CC1ADD0AC09ED00189
:1025D000C19EB00DD09EB00D11248B2F949FA001F1
:1025E0001124452F55276F01C41AD50AC09EA0019A
:1025F000C19E500DD09E500D11245F01A91AB10843
:10260000AC9E6001AD9ED00CBC9ED00C1124CD2C94
:10261000DD24EC19FD09E09FE001E19FD00DF09F62
:10262000D00D1124ED2F62307105A1F048F4611531
:10263000710569F06130710589F0EB2F852F07C0B6
:102640006430710571F088F066307105B1F76E2F56
:10265000722F91CFE22F2B2F8D2FF9CFE22F252F25
:10266000F6CFEB2F822F2D2FF2CF2B2F8F2DE52F93
:10267000EECF0895E1E1F1E0808361830895CF9387
:10268000DF93762FE901682F842F0E94A7127983A8
:1026900068838A83DF91CF9108958091C902982F32
:1026A0009E7F29F4817082608093C90208958A32E6
:1026B000E8F381708862F8CF88E090E00C94F835F8
:1026C000CF92DF92EF92FF926B017C010E944D133B
:1026D000B701A60188E090E0FF90EF90DF90CF90E7
:1026E0000C941636E9ECF2E083E0808311828FEFE0
:1026F000828383831482A1EFB1E012968C911297AA
:10270000836012968C9360817181828193810C9495
:10271000601380919E0280FF76C082E497E09F93D1
:102720008F930E94F20880919E020F900F9080FF7D
:102730006AC08091C90281701F928F9385E297E0F1
:102740009F938F930E94F20880919E020F900F90AA
:102750000F900F9080FF57C08091C90286951F92FD
:102760008F938AE097E09F938F930E94F208809165
:102770009E020F900F900F900F9080FF44C08091A9
:10278000CA021F928F9380EF96E09F938F930E94CF
:10279000F20880919E020F900F900F900F9080FF93
:1027A00032C08091CB021F928F9386ED96E09F936B
:1027B0008F930E94F20880919E020F900F900F90CD
:1027C0000F9080FF20C08091CC021F928F938CEBE2
:1027D00096E09F938F930E94F20880919E020F9043
:1027E0000F900F900F9080FF0EC08091CD021F922E
:1027F0008F9380EA96E09F938F930E94F2080F9048
:102800000F900F900F9008958091C90280FF02C031
:102810008695089580E008958091CD02833018F464
:102820008F5F8093CD026091C9027091CA0280913E
:10283000CB029091CC020C9460138091CD0288233E
:1028400019F081508093CD026091C9027091CA0243
:102850008091CB029091CC020C94601370E00C94A8
:102860009F19609112018091C90280FF0AC0809176
:10287000110123E0829FC001112482539D4F0C94CB
:102880002E14809113019091140123E0829FF00196
:102890001124E253FD4F891750F7118210821282E2
:1028A0008F5F3396F8CF9091C90290FF14C090913A
:1028B00013012091140133E0939FF0011124E2539E
:1028C000FD4F921710F00C94311481836083428382
:1028D0009F5F3396F6CF0895CF93DF9300D00F928A
:1028E000CDB7DEB79091C90290FF0AC09E012F5F5D
:1028F0003F4F0E943F134B8169818A810E9453148C
:102900000F900F900F90DF91CF910895CF93DF93A9
:10291000EC01EC81F0E0E859F84F4491E9ECF2E089
:10292000628181810E946C148C818F5F8C83DF9126
:10293000CF910895CF93DF93EC01E9ECF2E043816E
:1029400062818C810E946C148C818F5F8C83DF91FB
:10295000CF910895EF92FF920F931F93CF93DF9340
:1029600000D00F92CDB7DEB7182FF62E042FE22E2F
:102970008091C90280FF55C0E82FE695F0E0E75945
:10298000FE4F90819093F1018E7F823009F053C009
:102990009E012F5F3F4F812F0E943F134B81698122
:1029A0008A810E9453148091CA02811308C08091C9
:1029B000CB028F1104C08091CC02801729F0809146
:1029C000F30182608093F3011093CA02F092CB026C
:1029D0000093CC02EE20E9F16091C9027091CA0225
:1029E0008091CB029091CC020E94601380919E0254
:1029F00080FF17C08091CC021F928F938091CB02F1
:102A00001F928F938091CA021F928F9383EC94E060
:102A10009F938F930E94F2080FB6F894DEBF0FBE0B
:102A2000CDBF0F900F900F90DF91CF911F910F911D
:102A3000FF90EF900895923019F40091CC02B3CF3B
:102A40008091CA02963019F0993009F0ACCF182F56
:102A5000AACF80919E0280FFE4CF1F920F931F9216
:102A6000FF921F921F938CE994E0D2CFE9ECF2E041
:102A70009181282F4381628188E0890F0C94AA14E8
:102A800081E00C943615E9ECF2E09181282F438126
:102A9000628188EF890F0C94AA1481E00C9443158D
:102AA000E9ECF2E0628128E0620F08F46FEF282F72
:102AB000438181810C94AA1481E00C945015E9ECB7
:102AC000F2E0628128E0621B08F460E0282F438175
:102AD00081810C94AA1481E00C945F15E9ECF2E07A
:102AE000438128E0420F08F44FEF282F6281818153
:102AF0000C94AA1481E00C946E15E9ECF2E0438189
:102B000028E0421B08F440E0282F628181810C9468
:102B1000AA1481E00C947D1520E00C94AA14EF9285
:102B2000FF921F93CF93DF93EC0110E0EE24EA9421
:102B3000F12C60911501161770F00E9431149A81E2
:102B40008C8190FF27C08F5F8C83DF91CF911F9185
:102B5000FF90EF90089520911301422F410F5527C8
:102B6000551FCA019A01220F331F280F391F225304
:102B70003D4F70E0C7010E94C935962F8C8140916E
:102B8000CC026091CB02199F800D11240E943F134B
:102B90001F5FCFCF8150D8CF8F929F92AF92BF92BD
:102BA000CF92DF92EF92FF920F931F93CF93DF9319
:102BB000EC018A81BB24BA9480FD02C0BB24B3948B
:102BC0008C8181110AC081E0B8122AC08091150160
:102BD00081508093E60181E08C83A12C4CE0942EFF
:102BE00080911501A816F8F00E9431148091E60139
:102BF00091E0B91261C081115AC0809115018150D4
:102C00008093E6011C82DF91CF911F910F91FF907D
:102C1000EF90DF90CF90BF90AF909F908F900895EE
:102C20001092E601D8CF00911301CA2CD12C0C0DC3
:102C30001D2D111DC801880F991F080F191F025360
:102C40001D4FF80111821082128234E0E32EF12C24
:102C5000812C8091E601880D8D301CF1692D0E9438
:102C6000A735892F082E000C990BC816D90691F4A8
:102C70008091CC028E9DA0018F9D500D1124559501
:102C800047955595479598016091CB028091CA026E
:102C90000E943F138B0CF1E0EF1AF108D1F6A394D8
:102CA0009FCF87FFDFCF90911501890FDBCF815038
:102CB0008093E601BC82A7CF90E001966091150158
:102CC00070E00E94C9358093E6018C839CCF80918F
:102CD000F30108951092F301089525E0E9ECF2E084
:102CE000DC0101900D922A95E1F72091F1013091DC
:102CF000F2014091F301FC01258336834783089557
:102D0000E1EFF1E011828281846082830895609115
:102D1000C902669570E041E050E086E191E00E94D2
:102D2000E335892B19F481E08093F2010E94F32AA4
:102D30009093EB018093EA018091F301846080938A
:102D4000F30180919E0280FF08C083E894E09F9386
:102D50008F930E94F2080F900F9008951092F20145
:102D60008091F30184608093F30180919E0280FF43
:102D700008C08AE694E09F938F930E94F2080F9018
:102D80000F9008959091C90290FF59C091708111E0
:102D900040C092609093C9028091F301816080935A
:102DA000F3016623E9F16091C9027091CA02809132
:102DB000CB029091CC020E94601380919E0280FF12
:102DC0000FC08091C90286951F928F9386EE95E081
:102DD0009F938F930E94F2080F900F900F900F9087
:102DE0006091C902669570E041E050E086E191E0B3
:102DF0000E94E335892B01F10E94AE1681E0809399
:102E0000ED014091CC026091CB028091CA020C94FA
:102E10008C15853110F09862BDCF880F982BBACFF2
:102E200080919E0280FFDCCF8091C90286951F921F
:102E30008F9388EC95E0CCCF0E948716DFCF089562
:102E4000682F9091C902969581E0890F853108F02D
:102E500081E00C94C21681E00C942017682F9091A9
:102E6000C90296958FEF890F09F484E10C94C2167C
:102E700081E00C942E1761E00C94C2168091C90277
:102E800081608093C90280919E0280FF0DC01F92D5
:102E900081E08F938AE595E09F938F930E94F208DB
:102EA0000F900F900F900F908091C90286950C940F
:102EB0003B1760E00C94C2168091F001811165C04F
:102EC00080919E0280FF14C089E896E09F938F93C3
:102ED0000E94F20880919E020F900F9080FF08C020
:102EE00083E796E09F938F930E94F2080F900F90D4
:102EF0000E947829811110C080919E0280FF08C035
:102F00008BE496E09F938F930E94F2080F900F90AE
:102F10000E94152A0E9472130E945C136093C902DA
:102F20007093CA028093CB029093CC028091F301FC
:102F300083608093F3016E7FC1F480919E0280FFD5
:102F400008C082E096E09F938F930E94F2080F9052
:102F50000F900E9472130E945C136093C9027093D9
:102F6000CA028093CB029093CC020E944D130E9420
:102F700089130E9480168091C90280FF03C0869544
:102F80000E94591781E08093F00108958091C90251
:102F90008E7F8093C9026091C9027091CA028091AC
:102FA000CB029091CC020E94601380919E0280FF20
:102FB0000FC08091C90281701F928F9382E295E0C9
:102FC0009F938F930E94F2080F900F900F900F9095
:102FD0000E94AE168091F30181608093F3012FEF80
:102FE00080E792E0215080409040E1F700C000006F
:102FF0000C94311480919E0280FF10C08091C90210
:10300000809581701F928F9381E995E09F938F93B4
:103010000E94F2080F900F900F900F908091C902BC
:1030200080FD0C94C6170C943E178091C9028E7FC8
:103030008093C90280919E0280FF0CC01F921F9254
:1030400088EE94E09F938F930E94F2080F900F9068
:103050000F900F900E94AE168091F30181608093D3
:10306000F3012FEF80E792E0215080409040E1F79C
:1030700000C000000C9431141F93CF93DF93EC0138
:10308000162F8F8180FF0CC0888180FF24C0809123
:10309000C90281608093C902888186950E94C21608
:1030A0008F8181FF06C0212F4B816A8189810E9417
:1030B000AA148F8182FF05C08E81882379F00E9437
:1030C00087168F8183FF03C081E08093ED01DF913C
:1030D000CF911F9108950E941518E2CF0E94AE165D
:1030E000F0CFEF92FF920F931F93CF93DF938091D6
:1030F000F201882309F475C08091F101E091C902C1
:10310000E695E81BE093EC01823009F071C0F0E035
:10311000EC59F84FE491CE2FD0E006E814E180910D
:10312000ED01882389F01092ED010E94F32A9E019F
:1031300020953095820F931F9093EB018093EA01C5
:103140001092EF011092EE018091EA019091EB0153
:103150000E940B2B8C179D0708F443C08091E90156
:10316000882311F11092E9018091E7019091E80123
:103170000E940B2B80339547B8F00E94F32A90935E
:10318000E8018093E70180919E0280FF08C081E4FE
:1031900094E09F938F930E94F2080F900F9080917C
:1031A000F30188608093F301E090EE01F090EF016D
:1031B000E091EA01F091EB01CE0FDF1FD093EB011C
:1031C000C093EA018AEE91E0F80109958091EE0141
:1031D0009091EF01892B29F4EF2819F081E0809379
:1031E000E901DF91CF911F910F91FF90EF9008952A
:1031F000863049F4F0E0EF59F84FE491CE2FD0E05B
:103200000AE914E18CCF893051F4E695F0E0E25AF6
:10321000F84FE491CE2FD0E00FE815E180CFC0ED5C
:10322000D7E009E313E18F3009F079CFE695F0E0BC
:10323000E55AF84FE491CE2FD0E00CEC15E16FCFBA
:10324000FA01811101C0FB010994CF93DF93C82FCC
:10325000D62F0E9404148C1740F00E9404148D177E
:1032600020F4DF91CF910C942B178C2FDF91CF910D
:103270000C943B171F93CF93DF93EC01FB0112815A
:10328000111110C00E94AC288272FE01E25CFC4564
:10329000E431F10508F051C0EE54F94C0C94DD35E1
:1032A0000E94FA17812FDF91CF911F91089548E373
:1032B00057E16BE277E10E942019F4CF4BE257E12E
:1032C00068E377E1F8CF4DE455E160E475E1F3CFD1
:1032D00040E455E16DE475E1EECF4BE655E16CE578
:1032E00075E1E9CF4CE555E16BE675E1E4CF49E8DE
:1032F00055E16AE775E1DFCF4AE755E169E875E135
:10330000DACF4DE154E16CE074E1D5CF4CE054E10B
:103310006DE174E1D0CF81E00E943B17C3CF65E03F
:1033200082E00E942519BECF68E086E0FACF6EE009
:1033300089E0F7CF64E18FE0F4CF11E0B3CF539A87
:103340004BB1477F5BB15860EFB7F8949B01220FF8
:10335000331F260F371F280F391F2817390741F44D
:10336000EFBF8FE594E00197F1F700C000000895EA
:10337000DC016D91CD0178E05BB9000000C067FF12
:103380004BB9660F000000C000C000C04BB900C0C0
:103390007A9591F7E2CF0C94C20C85988D9A849817
:1033A0008C9A8FB185FB882780F97C990EC090E0BC
:1033B000892B8093F9019091000181E098279093E7
:1033C000F501891B8093F401089592E0F1CFCF932A
:1033D000E091F901EE0FEE0FE093F9014FB145FBDB
:1033E000882780F94FB144FB222720F944FF02C00F
:1033F00022E030E0822BE82BE093F901C091F50147
:10340000EF70F0E0E258FE4F80819091F801890F53
:103410008093F80184306CF0EC2F0C2E000CFF0B25
:10342000EA50FE4F80818F5F808360E08C2F0E9486
:10343000CB198091F8018D3F6CF4EC2F0C2E000C11
:10344000FF0BEA50FE4F80818150808361E08C2F1A
:103450000E94CB198091F801837887FF03C08150C7
:103460008C6F8F5F8093F801CF910895E091F50103
:10347000F0E0EA50FE4F2081FC0120830895FF9286
:103480000F931F93CF93DF93D091F4010D2F10E092
:103490000A501E4FFC01C081F8018081C81BFC2E20
:1034A0001F1464F08C2FC7FD80E0C81BC11110C031
:1034B000DF91CF911F910F91FF900895FA94F80139
:1034C00080818F5F808360E08D2F0E94CB19E8CFD1
:1034D000CF5FF80180818150808361E08D2F0E9451
:1034E000CB19E4CF0F931F93CF93DF93C62FD42F25
:1034F000022FFC0182818823C9F06093FC010E94A5
:10350000F32A9093FB018093FA0180E28C0F8830BC
:1035100008F050C0C77081E001C0880FCA95EAF773
:10352000DF91CF911F910F910C94BF201091FC015E
:10353000161335C08091FA019091FB010E940B2B6C
:10354000883C910560F5C0E2CD0F1D17B9F080E20F
:10355000810F883040F4177081E001C0880F1A9500
:10356000EAF70E94C620C83048F481E09D2F97708A
:1035700001C0880F9A95EAF70E94BF20802F0E9411
:10358000AC20C830B8F4D77081E001C0880FDA955C
:10359000EAF7DF91CF911F910F910C94C62080E242
:1035A0008C0F883038F4C77081E001C0880FCA954D
:1035B000EAF7EFCFDF91CF911F910F9108959C0112
:1035C000CB01233F4CE5340731F190F4283DFCE575
:1035D0003F07E9F0293D4CE5340769F1273D3C45BB
:1035E00079F426E241EE61EE0E94721A80E00895BD
:1035F000253FFCE53F07B9F090F0263F3C45B9F088
:10360000FC0182818823D1F01092FC01089527E209
:1036100045EE65EEE9CF26E241EE60EEE5CF27E22A
:1036200045EE64EEE1CF26E241EE62EEDDCF27E229
:1036300045EE66EED9CF28E241E0EBCF81E0089578
:10364000CF93DF93EC01FB018281882309F419C138
:10365000C230FCE5DF07C0F1C6319CE5D90730F088
:103660009E012A5F3C452930310570F50E948B2967
:103670009093F7028093F602C031ECE5DE0709F47F
:10368000CFC008F05BC0C8308CE5D80709F4B6C0DD
:1036900088F5C430ECE5DE0709F4A8C0C0F4C230F8
:1036A0008CE5D80709F49CC08091F6028260C33093
:1036B000DC4509F498C08091F6029091F7020E94CF
:1036C00099290E942C2380E0DF91CF910895809169
:1036D000F6028061C630ECE5DE0709F484C0809113
:1036E000F6028860C730DC4508F47DC08091F602A0
:1036F000806279C0CC308CE5D80709F489C070F4B9
:103700008091F6028C60CA30ECE5DE0709F46BC0EC
:1037100008F478C08091F6028E7F65C0CE308CE5CB
:10372000D80709F479C08091F6028B7FCF30DC4551
:1037300008F459C08091F6028F7E55C0CB3FECE56E
:10374000DE0709F457C030F5C3318CE5D80709F41A
:103750006FC078F4C131ECE5DE0709F465C0C23111
:10376000DC4509F0A8CF0E942C238091F6028F77C8
:103770003AC0C5318CE5D80709F462C008F476C0B8
:103780008091F7028160CA3FDC4509F094CF8093B5
:10379000F70291CFCF3FFCE5DF0709F44DC088F475
:1037A0008091F7028D7FCD3F9CE5D90781F3809111
:1037B000F7028E7FCE3FDC4550F38091F7028360A5
:1037C000E6CFC130FDE5DF0709F459C008F444C075
:1037D00080E0C230DD4509F06ECF0E94172A6BCF22
:1037E0008091F60281608093F60265CF8091F602A7
:1037F0008460F9CF8091F7028260C9CF8091F60290
:103800008064F1CF0E942C238091F6028068EBCF78
:103810008091F6028D7FE7CF8091F602877FE3CF1C
:103820008091F6028F7DDFCF8091F6028F7BDBCF18
:103830008091F602837FD7CF8091F7028C7FA7CF4C
:103840008091F60282FB992790F921E0922790FB64
:1038500082F990FB83F9C7CF8091F702982F90955A
:1038600091708E7F892B90FB81F991CF0E942C2340
:103870009091F602892F97FB87F98058B4CF81E0A9
:10388000ACCF81E021CFCF93DF93EB0186319C4514
:1038900011F50E94AC289A81992399F08A7A91E0D7
:1038A00009F490E09093FD01811109C089E20E9422
:1038B00087280E94F82880E0DF91CF91089585E362
:1038C000F6CF8091FD01811104C089E20E948E280B
:1038D000F0CF85E3FBCF81E0EFCF8EE14A9B02C0C2
:1038E0008150E1F74A9BFECF08955A9880E28A956D
:1038F000F1F75A9A0895FC013BE03A95F1F720E080
:1039000090E080E031E040E14A95F1F7880F4A9B72
:1039100002C08160232742E04A95F1F7000040E1B0
:103920004A95F1F79F5F6913EECF90E19A95F1F711
:1039300099B132E03A95F1F7000040E14A95F1F78C
:1039400092FB992790F992272081920F90830895F6
:10395000EF92FF920F931F93CF93DF930F92CDB708
:10396000DEB719828C017C01E60EF11C0E151F05D5
:1039700061F481E09981911180E00F90DF91CF9106
:103980001F910F91FF90EF9008950E946D1C68E0C9
:10399000CE0101960E947B1CF80181938F01E6CF36
:1039A000909300028093FF016093FE01529A5A9A0D
:1039B0000895909300028093FF016093FE01529856
:1039C0005A9AEA9AE9E6F0E080818F7C8083089534
:1039D0006150770B91E001C0990F6A95EAF720E0FA
:1039E00031E0911108C0222391F05A9A80E28A9521
:1039F000F1F75A980895492F482339F05A9A232706
:103A000040E24A95F1F79695ECCF5A98F9CF5A983B
:103A1000EDCFFF920F931F93CF93DF93EC018C01B7
:103A2000060F111DC017D10731F4DF91CF911F91FF
:103A30000F91FF900895F9900E94751C68E08F2DFA
:103A40000E94E81CEFCF1F920F920FB60F92112425
:103A50000F931F932F933F934F935F936F937F9396
:103A60008F939F93AF93BF93EF93FF93CF93DF9386
:103A70000F92CDB7DEB719820E946D1C67E0CE01B0
:103A800001960E947B1C082F069506950695982F97
:103A900092959570202F2570920F292F237096955F
:103AA00096958770920F891344C08981811141C016
:103AB0008091FE018017E8F120E12A95F1F75A9AEA
:103AC000529A82E08A95F1F700C0A8E00A9FC001EF
:103AD00011240091FF0110910002080F191F5A983C
:103AE000F8016581662321F0868197810E94091D76
:103AF0000E94751CF0E1FA95F1F75A9852985A9A7B
:103B000020E12A95F1F7D80112966C91129766235D
:103B100031F113968D919C910E94A81CD801ED91D2
:103B2000FC91882311F088E001C082E080830E942C
:103B30006D1C0F90DF91CF91FF91EF91BF91AF91ED
:103B40009F918F917F916F915F914F913F912F91B5
:103B50001F910F910F900FBE0F901F901895ED9130
:103B6000FC91E1CF0F931F93CF93DF932091FE0140
:103B7000281719060CF471C08C0193E0000F111F77
:103B80009A95E1F7C091FF01D0910002C00FD11FBB
:103B9000F894529A5A9825E02A95F1F70000982F48
:103BA000969595708570980F892F83709695969548
:103BB000980F092B0E94751C00C067E0802F0E949F
:103BC000E81C80E18A95F1F752985A9A4A9B17C0EF
:103BD00087E090E04A9915C06D81662321F18E81BE
:103BE0009F810E94A81C81111EC0529A5A9AE88196
:103BF000F98182E08083789482E090E00DC000C07B
:103C0000E5CF019771F4529A5A9AE881F98181E0DF
:103C10008083789481E090E0DF91CF911F910F91A4
:103C2000089500C0D7CF0E946D1C20E22A95F1F7BD
:103C30005A98529A80E18A95F1F76A81662321F0B9
:103C40008B819C810E94091D0E94751CE881F9816D
:103C50001082789490E080E0DFCF84E090E0DCCFC9
:103C600090930602809305020895E0910502F09179
:103C70000602309721F00190F081E02D099480E058
:103C80000895EF92FF920F931F93CF93DF938C01D0
:103C9000E0910502F09106023097C1F10280F381B4
:103CA000E02D099580919E0282FF30C080FF04C004
:103CB00080E799E00E945908D0E0C0E08AE6E82E4B
:103CC00089E0F82E80919E0280FF0EC0F801EC0F73
:103CD000FD1F80811F928F93FF92EF920E94F20846
:103CE0000F900F900F900F902196C830D10551F78B
:103CF00080919E0280FF0AC088E699E0DF91CF9113
:103D00001F910F91FF90EF900C945908DF91CF9184
:103D10001F910F91FF90EF90089520910302309131
:103D200004022817390771F090930402809303026C
:103D3000E0910502F0910602309721F00680F781AC
:103D4000E02D099408952091010230910202281774
:103D5000390771F09093020280930102E09105020D
:103D6000F0910602309721F00084F185E02D09944E
:103D7000089585B7806885BF85B7806885BF089539
:103D8000089508950C94C01E08950C94C41E0E94BA
:103D9000B91E0E94C11E0C94C21E0C940A120E94ED
:103DA000EA2A0E94CB100E944F2B0E945C170E94AF
:103DB000CD190C94C51ECF93C82F80919E0282FF0F
:103DC0001EC080FF1CC089E899E00E9459088091BC
:103DD0009E0280FF14C01F92CF9384E899E09F93C6
:103DE0008F930E94F20880919E020F900F900F9087
:103DF0000F9080FF04C082E899E00E9459088C2F40
:103E0000CF910C94FF0DAF92BF92CF92DF92EF92C1
:103E1000FF920F931F93CF93DF93CDB7DEB72A970F
:103E20000FB6F894DEBF0FBECDBF0E9450110E94A6
:103E3000CD1E882309F461C088E0A82E82E0B82E48
:103E400010E000E0C02E802F0E947A10E82EF501CD
:103E5000D1905F01D81609F44AC080919E0281FD7D
:103E60000E94801080E0FF24F394DE249D2D9F218A
:103E7000C9F18E83CF82EF2081E009F480E088874A
:103E80000E94F32A8160782F9A8789874E815F810B
:103E900068858A850E949F1FF801E85FFD4F808139
:103EA000F826F0820E9471180E94E7190E94351EC0
:103EB00090910702891791F10E94351E80930702A5
:103EC0002A960FB6F894DEBF0FBECDBFDF91CF911B
:103ED0001F910F91FF90EF90DF90CF90BF90AF9028
:103EE0000C94DB1E8F5FFF0C883009F0BFCF0F5F93
:103EF0001F4F0C30110509F0A5CF8FEF89838A83FE
:103F00001B820E94F32A8160782F9D838C834981D4
:103F10005A816B818D810E949F1FC4CF2A960FB654
:103F2000F894DEBF0FBECDBFDF91CF911F910F91EF
:103F3000FF90EF90DF90CF90BF90AF900895CF9318
:103F4000DF93CDB7DEB72B970FB6F894DEBF0FBE69
:103F5000CDBF4F83588769877A878B871E821D82E2
:103F600085E0FE013796DE01119601900D928A954B
:103F7000E1F749815A816B817C818D819E812B96ED
:103F80000FB6F894DEBF0FBECDBFDF91CF910C947A
:103F9000A225FC01808191810C945928CF93C82FD0
:103FA000882309F488C08238C1F40E94351E81FD3F
:103FB00082C089E30E9487280E94F8282FEF81EEB3
:103FC00094E0215080409040E1F700C0000089E378
:103FD0000E948E28CF910C94F8288338A1F40E9477
:103FE000351E80FD68C083E50E9487280E94F8285E
:103FF0002FEF81EE94E0215080409040E1F700C027
:10400000000083E5E5CF8438A1F40E94351E82FDCF
:1040100052C087E40E9487280E94F8282FEF81EE83
:1040200094E0215080409040E1F700C0000087E418
:10403000CFCF8CEF8C0F813AB8F48C2F0E94E92DF2
:10404000811139C06C2F80911701909118010E9445
:104050002E2A882329F08C2F0E948E280E94F8286F
:104060008C2F0E948728B6CF80E28C0F883048F4CE
:10407000C77081E001C0880FCA95EAF70E94AF2897
:10408000A9CFEBE5EC0FE33040F4F0E0E454FE4F51
:10409000808190E0CF910C948D1EC85AC73158F49E
:1040A000EC2FF0E0EE0FFF1FE257FE4F8081918171
:1040B000CF910C94A31ECF910895882309F44BC08F
:1040C000823871F40E94351E81FF45C089E30E9449
:1040D00087280E94F82889E30E948E280C94F828EB
:1040E000833859F40E94351E80FF35C083E50E9455
:1040F00087280E94F82883E5EFCF843859F40E947E
:10410000351E82FF28C087E40E9487280E94F82875
:1041100087E4E2CF9CEF980F913AF0F290E2980F8B
:10412000983050F4877091E001C0990F8A95EAF7B2
:10413000892F0E94B528D2CF9BE5980F933020F4A9
:1041400090E080E00C948D1E885A873120F490E036
:1041500080E00C94A31E0895CF93C82F0E94CE1F19
:10416000C93349F42FEF87EE93E02150804090400F
:10417000E1F700C000008C2FCF910C945D208823C4
:1041800021F00E94AF280C94F8280895882321F08C
:104190000E94B5280C94F8280895BF92CF92DF9220
:1041A000EF92FF920F931F93CF93DF936C01D62F63
:1041B000C72FFC01058102950F70128111110E9419
:1041C000CC280E94A528E82E882391F01123D1F055
:1041D0008C2F807F803421F080E28D0F883090F02A
:1041E00082E00E9443290E94A52891E0E82EE9265A
:1041F000BC2EB2949FE0B922EB2DF0E0EA53F94CCB
:104200000C94DD35E12CF4CF0C2F0F70C07F11F032
:104210000295007F1123A9F0002359F080E28D0F51
:10422000883010F0D11109C0802F0E94AF280E9461
:10423000F8288D2F0E94CE1F14C0802F0E94BF2807
:10424000F6CF8D2F0E945D20002359F080E28D0F64
:10425000883010F0D1112CC0802F0E94B5280E9408
:10426000F8282B2D2850330B2430310520F40E94E0
:10427000351E0E94FF0DEE2009F493C10E94A12873
:1042800080FD8FC1F60112820E949B280E94262782
:10429000C6010E94F2220E949B28DF91CF911F91BC
:1042A0000F91FF90EF90DF90CF90BF900C94472735
:1042B000802F0E94C528D3CFFC2FFF70FF2EC07F18
:1042C000C03219F0F29480EFF822DD2369F0D1308A
:1042D00049F1112391F1002351F1F601858180FF0D
:1042E000A8CF8F70858323C0112381F0011106C0F0
:1042F0000E94DF288F290E94BF20B3CF0130C1F771
:104300000E94DF288F290E94E528ABCF011106C04B
:104310000E94EE288F2D0E94C620A3CF013009F401
:10432000A0CFF6CF112329F0063008F09ACF8F2DB9
:10433000E2CF053008F095CFEDCF002359F3D93304
:1043400049F4FFEF27EE33E0F15020403040E1F731
:1043500000C000008D2F0E945D2083CF8C2F86959A
:104360008695837069F0813009F07BCF8D2F9C2F6B
:104370009370111102C090E080E00E94A31E71CFE3
:104380008D2F9C2F9370111102C090E080E00E944D
:104390008D1E67CF8C2F837009F041C0111161CF42
:1043A0004D2F429546954770440F440F0D2F0F70C7
:1043B00010E030E020E0042E04C0000F111F221F87
:1043C000331F0A94D2F760E070E0CB01D4FF0FC036
:1043D0006FE070E080E090E004C0660F771F881FF8
:1043E000991F4A95D2F76095709580959095C695DE
:1043F000C695C370602B712B822B932BC23049F072
:1044000058F4C13019F00E94D8262BCF0E94C6263E
:1044100028CF0E94EA2625CF0E94C42622CF869567
:10442000112311F08C2F8170882309F41ACF4D2F9E
:10443000429546954770440F440F0D2F0F7010E0C2
:1044400030E020E0042E04C0000F111F221F331F94
:104450000A94D2F760E070E0CB01D4FF0FC06FE0A8
:1044600070E080E090E004C0660F771F881F991FFE
:104470004A95D2F76095709580959095C695C695AA
:10448000C370602B712B822B932BC23049F058F4F0
:10449000C13019F00E949D27E4CE0E948B27E1CE07
:1044A0000E94AF27DECE0E940027DBCECF70112303
:1044B00029F08C2F0E9426278D2F1DCF8D2F0E9433
:1044C000C6208C2F0E944727CCCED23F89F160F4C2
:1044D000D03FC9F0D13F29F1112309F442C00111A5
:1044E000A8CE8C2F8F7121C0D33F39F1D43FA1F7D3
:1044F000112369F1CF718C2F0E94262763E08C2F46
:104500000E942E29AECE112341F0053008F0A9CE2D
:104510008C2F8F710E946A27A4CE063008F0A1CE9E
:10452000F7CF8C2F8F71112369F20E94262799CE25
:104530008C2F8F711123C9F3C5CF112329F08C2F34
:104540008F710E9411278DCE0E940C278ACE81E0A8
:104550000E944329023008F484CE82E00E9443295D
:1045600080CE002359F0D93309F0F4CE8FEF97EEC7
:10457000E3E081509040E040E1F7EACE8C2F8F716C
:10458000A1CF4C2F4F706D2FC6010E946F0E0E945D
:104590003C2667CE4C2F4F706D2FC6010E94720EC5
:1045A00060CEDF91CF911F910F91FF90EF90DF9040
:1045B000CF90BF9008950F931F93CF93DF93EC019B
:1045C000688179818A810E9463288C010E94C127B9
:1045D0000E94C326B801CE01DF91CF911F910F91A8
:1045E0000C94CD20CF93DF93EC018B819C81892BA0
:1045F00029F08881998189238F3F59F4DF91CF91E8
:104600000895CE010E94DB22CE01DF91CF910C9460
:104610002B0DCE010E94170E8111F3CF0E94A52809
:10462000882361F38A81882349F382E0DF91CF9167
:104630000C9443290E94CC280E94DC280E94F82870
:1046400090E080E00E948D1E90E080E00C94A31E1C
:104650000E9495280C941A230E94BC280C942823AD
:10466000E92FE295EF70E250EE3070F4F0E0EA529C
:10467000F94C0C94DD35803F19F020F4883E20F48D
:1046800081E00895843FE1F380E00895883EC0F31F
:10469000813FD1F7F5CF93FB882780F908950E94D9
:1046A00059280C943023CF93DF9300D000D00F9281
:1046B000CDB7DEB70F900F900F900F900F90DF9156
:1046C000CF910895CF93DF9300D000D000D0CDB725
:1046D000DEB726960FB6F894DEBF0FBECDBFDF91D2
:1046E000CF9108951F93CF93DF93C091150216E0E9
:1046F000809116028C1304C0DF91CF911F91089511
:10470000D0E01C9FF0011D9FF00D1124E95EFD4FCC
:104710004081518162817381848195810E946223ED
:104720002196C770E5CF40914702509148026091B1
:10473000490270914A0280914B0290914C020C9474
:1047400062231F93CF93DF9380914C02807FA9F463
:1047500080914902882389F080911502C091160248
:104760006091470270914802A0914A02B0914B02B9
:10477000D62FD72316E0C81304C0DF91CF911F9125
:10478000089590E0109711F0DF3F19F401968770BB
:10479000F2CF189F9001199F300D1124F901E95EA5
:1047A000FD4F41814713F2CF40814613EFCF428145
:1047B0004111ECCF438154814A1B5B0B483C5105AE
:1047C00028F780914C028F70806180934C02F90130
:1047D000E45EFD4F80818F708061808387E492E08A
:1047E0000E94F222DF91CF911F910C947223AF921D
:1047F000BF92CF92DF92EF92FF920F931F93CF93CE
:10480000DF93CDB7DEB761970FB6F894DEBF0FBE6A
:10481000CDBF8C0185E0F801DE011D9601900D925F
:104820008A95E1F7F80140815181E28087E4C82E42
:1048300082E0D82E60914A0270914B026115710599
:1048400009F461C19091470220914802892F822387
:104850008F3F09F458C1A380B480F0904902F5015C
:10486000E61BF70BFF2009F4FCC080914C02382FA7
:10487000307FE83CF10508F0B2C0311179C0FE2C60
:10488000251323C0941321C0E1101FC08F708061D5
:1048900080934C020E949323C6010E94F2228091D1
:1048A0004C02F80185838F2D61960FB6F894DEBF18
:1048B0000FBECDBFDF91CF911F910F91FF90EF9071
:1048C000DF90CF90BF90AF900895AB2829F0842F50
:1048D00085238F3F09F033C180E0F82FF170DF2E80
:1048E00080FF3CC0809115022091160236E08213B1
:1048F00015C04D875E878D859E850E945928292F7A
:1049000022952F702230F0F0243018F59F70F1F0CE
:10491000F8019581907FD1F4D12C1EC090E0389F92
:10492000F001399FF00D1124E95EFD4F618165139F
:1049300006C06081641303C062816E110FC00196CE
:104940008770D5CF9F7011F0882331F3805E883057
:1049500018F3C8010E94F222FD2CA5CFEE2009F425
:10496000A2CF80914C02816080934C02F12C9BCFAE
:10497000251306C0941304C0F801EE2009F48DC07D
:104980004D875E878D859E850E944F23882319F170
:10499000EE2009F180914C02803270F020914702A4
:1049A0003091480238872F831986BB86AA868C8768
:1049B000CE0107960E94F22286E0F801A7E4B2E059
:1049C00001900D928A95E1F70E94A1230E94932302
:1049D000FF24F39468CFC8010E94F222F9CF31116D
:1049E00013C07A2DB98AA88A6E2D89890E94532313
:1049F00087E492E00E94F22286E0F60111928A9505
:104A0000E9F70E949323B2CF25130FC094130DC072
:104A1000E1100BC0F8018583C8010E94F22286E0F4
:104A2000F60111928A95E9F73ECF4D875E878D8515
:104A30009E850E944F23882371F2EE2061F28091BF
:104A40004C02803208F4B8CF2091470230914802DE
:104A50003A8329831B82BD82AC828E83CE0101966C
:104A6000A9CFE83CF10508F041C0FE2CEE2009F486
:104A7000B2CF25132AC0941328C080914C0280FD28
:104A80001BC0982F907FC1F0F8018583903F31F0D3
:104A9000982F907F905F8F70892B8583C8010E942B
:104AA000F22286E0F801A7E4B2E001900D928A9527
:104AB000E1F70E949323F7CE86E0F801A7E4B2E085
:104AC00001900D928A95E1F7EECE4D875E878D8538
:104AD0009E850E944F2381116FCF80914C0281608F
:104AE00080934C02C8010E94F222DDCE7A2DB98A51
:104AF000A88A6E2D89890E94532386E0F6011192BF
:104B00008A95E9F7D6CFEE2009F465CF4D875E8709
:104B10008D859E850E944F23F82E882309F45BCF54
:104B200086E0F801A7E4B2E001900D928A95E1F7E2
:104B300087E492E00E94C91F0E94A123BACF81E0BE
:104B40008E25CBCE1F93CF93DF93CDB7DEB72C97B7
:104B50000FB6F894DEBF0FBECDBF4F83588769876D
:104B60007A878B879C87CE0107960E94F72388233C
:104B700069F08A859B85892B39F04F815885842F70
:104B800085238F3F09F071C016E05FC086E0FE010B
:104B90003796DE01119601900D928A95E1F78A858C
:104BA0009B85892B89F388859F8189238F3F61F3BA
:104BB0002091160230E0C901019687709927409133
:104BC00015024817190671F40E942C231092160240
:104BD0001092150286E0E7E4F2E0DF011D928A956B
:104BE000E9F7D2CF96E0929FD001939FB00D1124A8
:104BF000A95EBD4FFE01319601900D929A95E1F7A5
:104C0000809316020E947223BFCF819FC00111249E
:104C1000895E9D4F0E94F7238823E9F0E0911502F9
:104C20001E9FF0011124E95EFD4F40815181628198
:104C30007381848195810E9462238091150290E0A6
:104C400001968770992780931502809115029091A3
:104C500016028913DACF2C960FB6F894DEBF0FBE7A
:104C6000CDBFDF91CF911F91089569857A858B859E
:104C70009C850E94622388CFEF92FF920F931F932F
:104C8000CF93DF938C01892B81F0F12CEE24E394F8
:104C9000E8012196F8018491843770F4843008F09B
:104CA0005FC08130B1F08230A1F1DF91CF911F91CF
:104CB0000F91FF90EF900895853709F44CC008F4E8
:104CC0003DC09CE7980F903780F78F770E945D205A
:104CD00049C00E5F1F4FFE01849190E2980F9830FB
:104CE00060F48770FE2D01C0FF0F8A95EAF78F2FC1
:104CF0000E94CF280E94F82802C00E94CE1F8F2D4C
:104D0000815030F2EFE9FFE03197F1F700C0000089
:104D1000F7CF0E5F1F4FFE01849190E2980F9830FD
:104D200050F48770FE2D01C0FF0F8A95EAF78F2F90
:104D30000E94D528DFCF0E945D20E1CF0E5F1F4F7C
:104D4000FE01C491C150D8F28FE99FE00197F1F7BD
:104D500000C00000F7CF0E5F1F4FFE01F490CFCFD1
:104D60000E94CE1F8E01CBCF08950C94B4260E94D2
:104D7000B52660938D0270938E0280938F0290937C
:104D800090020C941A2308950C94B7260F931F9346
:104D900000918D0210918E0220918F02309190022D
:104DA000602B712B822B932B1F910F910C94B726A4
:104DB0000F931F9300918D0210918E0220918F020C
:104DC0003091900260237123822393231F910F91CE
:104DD0000C94B7260F931F9300918D0210918E02B1
:104DE00020918F02309190026027712782279327AC
:104DF0001F910F910C94B7260C94B4260C94FC26AA
:104E00000E94FE266093890270938A0280938B022F
:104E100090938C020C941A2360E070E0CB010C9408
:104E200000270F931F9341E050E060E070E08A019B
:104E30009B0104C0000F111F221F331F8A95D2F758
:104E4000C901B8011F910F910C9400270F931F9374
:104E500041E050E060E070E004C0440F551F661F61
:104E6000771F8A95D2F78091890290918A02A0914A
:104E70008B02B0918C028A019B01082B192B2A2BE3
:104E80003B2BC901B8011F910F910C9400270F9380
:104E90001F9341E050E060E070E004C0440F551FF4
:104EA000661F771F8A95D2F7CB01BA01609570957E
:104EB000809590950091890210918A0220918B0231
:104EC00030918C0260237123822393231F910F91D1
:104ED0000C9400270F931F9341E050E060E070E0D6
:104EE00004C0440F551F661F771F8A95D2F7809123
:104EF000890290918A02A0918B02B0918C028A0162
:104F00009B01082719272A273B27C901B8011F91B0
:104F10000F910C9400270F931F9300918902109119
:104F20008A0220918B0230918C02602B712B822B94
:104F3000932B1F910F910C9400270F931F930091B7
:104F4000890210918A0220918B0230918C02602399
:104F50007123822393231F910F910C9400270F93A9
:104F60001F930091890210918A0220918B02309147
:104F70008C0260277127822793271F910F910C9431
:104F800000270895990F990F990F890F982F9770FF
:104F900041E001C0440F9A95EAF78695869586957B
:104FA00095E0899FF0011124E35BFD4F30E020E0A4
:104FB00070E05191DF011197CB01022E02C096954E
:104FC00087950A94E2F78170819585278423852748
:104FD0008C932F5F3F4F2530310559F70895990F76
:104FE000990F990F890F982F9770869586958695BA
:104FF00025E0829FF0011124E35BFD4F50E040E08B
:1050000080E0219130E0092E02C0369527950A9460
:10501000E2F721703327042E01C0220F0A94EAF729
:10502000822B4F5F5F4F4530510559F70895BF926E
:10503000CF92DF92EF92FF920F931F93CF93DF9364
:105040008C01C0908902D0908A02E0908B02F0908F
:105050008C0280918D0290918E02A0918F02B0916E
:105060009002C82AD92AEA2AFB2ACFE1D0E0BC2E36
:10507000D701C6010C2E04C0B695A79597958795C4
:105080000A94D2F780FD0EC0219788F7B12C8B2DA2
:10509000DF91CF911F910F91FF90EF90DF90CF9014
:1050A000BF900895B8018C2F0E94900E019761F374
:1050B000EECFCF93DF93EC010E941728BE01DF9162
:1050C000CF910C94900E1F93CF93DF93EB019091AF
:1050D0001402992331F0CB01DF91CF911F910C94F1
:1050E0005928882379F0CB010E941728182F682FA0
:1050F000CE010E94C227BE01812FDF91CF911F9167
:105100000C94900ECB010E94EF27182FF4CF682F3C
:1051100080911701909118010C94642A682F809156
:105120001701909118010C94662A809117019091B3
:1051300018010C94682A8091910285958595859532
:1051400008958091910287700895909191029770CF
:1051500081E009F480E0089580919D020895909186
:105160009D02892B80939D020895809590919D02C8
:10517000982390939D02089510929D020895909116
:105180009C02892B80939C020895809590919C02AB
:10519000982390939C02089510929C0208959091F8
:1051A0009B02892B80939B020895809590919B028E
:1051B000982390939B02089510929B0208958091EA
:1051C0009202089508950C94E22890919202981703
:1051D00021F0809392020C94E3280895809192022A
:1051E000882329F01092920280E00C94E32808951D
:1051F000E0911701F091180180919D028083E09168
:105200001701F0911801808190919C02892B808375
:10521000E0911701F0911801808190919B02892BF8
:10522000808390919202992381F0E0911701F0918F
:1052300018018081892B808380911701909118013A
:105240000E941C2A81110E94EE28809117019091E2
:1052500018010C94411E08950C942B2998E0899F05
:1052600090011124622B609391020E942627809165
:1052700091028595859585950C942C291092910223
:1052800080E00C942C299091910280958923809341
:105290009102282F277071F4282F082E000C330B51
:1052A0009217130639F08595859585950E944727B5
:1052B0000C943E2908959093CF018093CE010895D8
:1052C000829590E09C01220F331F220F331F2C7C0C
:1052D00095958795959587958373282B30E0C9011F
:1052E000880F991F8A7A359527952575822B089501
:1052F00090E080E00E94FE3521E08C3E9E4F09F058
:1053000020E0822F089582E090E00C94F03583E055
:1053100090E00C94F035CF9384E090E00E94F0355B
:10532000C82F81E290E00E94F035982F8C2FCF910A
:105330000895CF93C92F682F84E090E00E9404362F
:105340006C2F81E290E0CF910C940436AB01BC014C
:105350008FE090E00C941636AB01BC0183E190E045
:105360000C94163660E070E0CB010C94AC2960E040
:1053700070E0CB010E94A6290C94B2296CEE7EEF5E
:1053800090E080E00E94223660E082E090E00E949F
:10539000043660E083E090E00E94043610928D02B3
:1053A00010928E0210928F021092900260E084E0C0
:1053B00090E00E94043660E081E290E00E940436B2
:1053C00060E085E090E00E94043660E086E090E0D6
:1053D0000E9404366FEF87E090E00E94043640E0C0
:1053E00050E0BA0188E090E00E94163660E08DE05F
:1053F00090E00E94043640E050E0BA0188E190E07D
:105400000E94163660E087E190E00E94043640E09A
:1054100050E0BA018CE190E00E94163660E080E234
:1054200090E00E9404360C94B7290C94BE29682F92
:105430008EE090E00C9404369C012E5F3F4FAC014F
:10544000485F5F4F80E02417350709F40895F9019C
:1054500091919F019923B9F38F5FF5CF662349F0AE
:10546000FC01329608962191261729F0E817F907D2
:10547000D1F780E0089581E008959C01FC01329607
:105480009FEF80E04191461751F09F3F19F4411181
:1054900001C0982F8F5F8630A9F79F3F09F40895C8
:1054A000290F311D97FD3A95F90162830895FC019A
:1054B000329608962191261303C0DF0111971C92A2
:1054C000E817F907B9F708950C943D2A0C94572A68
:1054D000029626E0FC0111922A95E9F708950895B5
:1054E00008950C94702A0E94712A8091FC028430E5
:1054F00049F110929F0288E190E020E40FB6F89401
:10550000A895809360000FBE2093600080E00E9409
:10551000FF0D0E94712A83B7817F846083BF83B7A8
:10552000816083BF7894889583B78E7F83BF0FB6E1
:10553000F894A89580916000886180936000109233
:1055400060000FBE08950895CF930E946F2A0E94B5
:1055500050110E94A32AC0E08C2F0E947A10811162
:1055600005C0CF5FCC30C1F7CF91089581E0FCCF6B
:1055700008950C94B82A0E942C230E94351E0E9484
:10558000FF0D0C94B92A1F921FB61F9211248F93FE
:105590009F93AF93BF9380919F02811113C080911D
:1055A000F2029091F302A091F402B091F5024196BB
:1055B000A11DB11D8093F2029093F302A093F40217
:1055C000B093F502BF91AF919F918F911F901FBE35
:1055D0001F90189582E084BD93E095BD9AEF97BD2A
:1055E00080936E0008952FB7F8948091F202909105
:1055F000F302A091F402B091F5022FBF08952FB7E6
:10560000F8946091F2027091F3028091F40290910B
:10561000F5022FBF08959C014FB7F8948091F202D4
:105620009091F302A091F402B091F5024FBF821B5A
:10563000930B089578941F921FB61F9211248F9395
:105640009F93AF93BF938091F2029091F302A09148
:10565000F402B091F5020196A11DB11D8093F202F2
:105660009093F302A093F402B093F502BF91AF912F
:105670009F918F911F901FBE1F90189587E797E706
:10568000909301088093000888E19AE00FB6F8949F
:10569000A895809360000FBE90936000FFCF0E949A
:1056A0007829811102C00E94152A0E9483298093C3
:1056B0009E020E948B299093F7028093F6020E942B
:1056C0008729682F70E090E080E00C94C426CF9387
:1056D000C82F1F928F9382EA99E09F938F930E9425
:1056E000F20861E070E080E090E004C0660F771F90
:1056F000881F991FCA95D2F70E94C4260F900F9059
:105700000F900F90CF910C942C23CF93DF938B317C
:1057100009F4FAC108F09CC18B3009F4B8C108F053
:105720006AC1863009F4C6C148F4853009F49EC1C7
:105730008EE09EE00E94590880E0CCC1873009F4D9
:10574000CCC18830A9F78DEA9EE00E9459088EEFFF
:105750009DE00E9459080E9487291F928F938BEF2A
:105760009DE09F938F930E94F20889EF9DE00E9435
:1057700059080E948329C82F86EE9DE00E9459088F
:105780001F92CF9381EE9DE09F938F930E94F2082A
:105790008FED9DE00E94590885ED9DE00E9459081B
:1057A0008C2F81701F928F9382ED9DE09F938F933A
:1057B0000E94F20880ED9DE00E94590886EC9DE071
:1057C0000E945908C1FB882780F91F928F9383ECB0
:1057D0009DE09F938F930E94F20881EC9DE00E94D0
:1057E000590885EB9DE00E945908C2FB882780F983
:1057F0001F928F9382EB9DE09F938F930E94F208FC
:1058000080EB9DE00E94590887EA9DE00E945908BC
:10581000C3FBCC27C0F91F92CF9384EA9DE09F93EE
:105820008F930E94F20882EA9DE00E9459080E942C
:105830008B29EC018EE89DE00E945908DF93CF93FD
:1058400089E89DE09F938F930E94F20887E89DE08E
:105850000E9459088EE69DE00E9459088C2F8170A5
:105860001F928F938BE69DE09F938F930E94F20887
:105870008DB79EB780960FB6F8949EBF0FBE8DBFB2
:1058800089E69DE00E94590882E59DE00E94590842
:10589000C1FB882780F91F928F938FE49DE09F932F
:1058A0008F930E94F2088DE49DE00E9459088BE3DB
:1058B0009DE00E9459088D2F81701F928F9388E37D
:1058C0009DE09F938F930E94F20886E39DE00E94E3
:1058D000590884E29DE00E945908D695D1701F9224
:1058E000DF9381E29DE09F938F930E94F2088FE106
:1058F0009DE00E9459088DE09DE00E945908C2FB7E
:10590000882780F91F928F938AE09DE09F938F9361
:105910000E94F20888E09DE00E94590886EF9CE012
:105920000E945908C3FB882780F91F928F9383EF49
:105930009CE09F938F930E94F20881EF9CE00E946D
:10594000590887EE9CE00E945908C4FB882780F91B
:105950001F928F9384EE9CE09F938F930E94F20896
:1059600082EE9CE00E94590880ED9CE00E9459085C
:10597000C5FB882780F91F928F938DEC9CE09F9345
:105980008F930E94F2088BEC9CE00E9459088FEAEA
:105990009CE00E945908C6FB882780F91F928F93CC
:1059A0008CEA9CE09F938F930E94F2088DB79EB77C
:1059B00080960FB6F8949EBF0FBE8DBF8AEA9CE01A
:1059C0000E94590882EA9CE00E945908C7FBCC2734
:1059D000C0F91F92CF938FE99CE09F938F930E9411
:1059E000F2088DE99CE00E9459080F900F900F90EB
:1059F0000F9081E06FC0803109F49EC080F48E303A
:105A000009F096CE90919E02892F8B7F92FF846041
:105A100080939E0282FF8DC089E39EE081C0863123
:105A200009F49AC0893109F083CE80ED9AE00E9492
:105A300059088BE99AE00E94590888E69AE00E948A
:105A400059088BE39AE00E94590880E19AE021C04E
:105A50008A3249F190F4873211F128F48E3108F43A
:105A600067CE8D511DC0893209F062CE8CE79EE071
:105A70000E9459080E94080EBCCF833468F48A3310
:105A800008F0A1C0853359F0883309F051CE8AEF70
:105A90009AE00E945908ADCF833409F049CE80E0E6
:105AA0000E94672BA6CF8CE99EE00E9459080E94B5
:105AB000152A9FCF80919E02807F80939E028FED5A
:105AC0009AE00E94590888E99EE00E94590881E006
:105AD0008093A002DF91CF91089590919E02892F2B
